{
  "abi": [
    {
      "inputs": [
        {
          "internalType": "address",
          "name": "trustredForwarder",
          "type": "address"
        }
      ],
      "stateMutability": "nonpayable",
      "type": "constructor"
    },
    {
      "anonymous": false,
      "inputs": [
        {
          "indexed": true,
          "internalType": "address",
          "name": "reported",
          "type": "address"
        },
        {
          "indexed": true,
          "internalType": "address",
          "name": "reporter",
          "type": "address"
        }
      ],
      "name": "ReportedAddress",
      "type": "event"
    },
    {
      "anonymous": false,
      "inputs": [
        {
          "indexed": true,
          "internalType": "bytes32",
          "name": "domainHash",
          "type": "bytes32"
        },
        {
          "indexed": true,
          "internalType": "bool",
          "name": "good",
          "type": "bool"
        },
        {
          "indexed": true,
          "internalType": "address",
          "name": "reporter",
          "type": "address"
        },
        {
          "indexed": false,
          "internalType": "string",
          "name": "domain",
          "type": "string"
        }
      ],
      "name": "ReportedDomain",
      "type": "event"
    },
    {
      "inputs": [
        {
          "internalType": "address",
          "name": "forwarder",
          "type": "address"
        }
      ],
      "name": "isTrustedForwarder",
      "outputs": [
        {
          "internalType": "bool",
          "name": "",
          "type": "bool"
        }
      ],
      "stateMutability": "view",
      "type": "function"
    },
    {
      "inputs": [
        {
          "internalType": "address",
          "name": "reported",
          "type": "address"
        }
      ],
      "name": "reportAddress",
      "outputs": [],
      "stateMutability": "nonpayable",
      "type": "function"
    },
    {
      "inputs": [
        {
          "internalType": "string",
          "name": "domain",
          "type": "string"
        },
        {
          "internalType": "bool",
          "name": "good",
          "type": "bool"
        }
      ],
      "name": "reportDomain",
      "outputs": [],
      "stateMutability": "nonpayable",
      "type": "function"
    }
  ],
  "bytecode": {
    "object": "0x60a060405234801561001057600080fd5b5060405161038c38038061038c83398101604081905261002f91610040565b6001600160a01b0316608052610070565b60006020828403121561005257600080fd5b81516001600160a01b038116811461006957600080fd5b9392505050565b6080516102fb610091600039600081816056015261018001526102fb6000f3fe608060405234801561001057600080fd5b50600436106100415760003560e01c8063572b6c0514610046578063b489deb01461009a578063f2cb7083146100af575b600080fd5b6100866100543660046101ce565b7f00000000000000000000000000000000000000000000000000000000000000006001600160a01b0390811691161490565b604051901515815260200160405180910390f35b6100ad6100a83660046101fe565b6100c2565b005b6100ad6100bd3660046101ce565b610132565b600083836040516100d4929190610286565b604051809103902090506100e661017c565b6001600160a01b0316821515827f39e58b987c7241d9c6e63b8312c7cdb8ff2af295f2702da73ca1885865979c4b8787604051610124929190610296565b60405180910390a450505050565b61013a61017c565b6001600160a01b0316816001600160a01b03167f8b2d366ebc8da4bea31737af54c8577003759bfddede87fc646339052d4b403360405160405180910390a350565b60007f00000000000000000000000000000000000000000000000000000000000000006001600160a01b0316331480156101b7575060143610155b156101c9575060131936013560601c90565b503390565b6000602082840312156101e057600080fd5b81356001600160a01b03811681146101f757600080fd5b9392505050565b60008060006040848603121561021357600080fd5b833567ffffffffffffffff8082111561022b57600080fd5b818601915086601f83011261023f57600080fd5b81358181111561024e57600080fd5b87602082850101111561026057600080fd5b60209283019550935050840135801515811461027b57600080fd5b809150509250925092565b8183823760009101908152919050565b60208152816020820152818360408301376000818301604090810191909152601f909201601f1916010191905056fea264697066735822122064a0cc0dd7f0540c666139b6eaa63dac12a0062c6b77e0a20c5be28b174c5e2564736f6c63430008150033",
    "linkReferences": {}
  },
  "methodIdentifiers": {
    "isTrustedForwarder(address)": "572b6c05",
    "reportAddress(address)": "f2cb7083",
    "reportDomain(string,bool)": "b489deb0"
  },
  "id": 22
}