{
  "abi": [
    {
      "inputs": [
        {
          "internalType": "address",
          "name": "trustredForwarder",
          "type": "address"
        }
      ],
      "stateMutability": "nonpayable",
      "type": "constructor"
    },
    {
      "anonymous": false,
      "inputs": [
        {
          "indexed": true,
          "internalType": "address",
          "name": "reported",
          "type": "address"
        },
        {
          "indexed": true,
          "internalType": "address",
          "name": "reporter",
          "type": "address"
        }
      ],
      "name": "ReportedAddress",
      "type": "event"
    },
    {
      "anonymous": false,
      "inputs": [
        {
          "indexed": true,
          "internalType": "bytes32",
          "name": "domainHash",
          "type": "bytes32"
        },
        {
          "indexed": true,
          "internalType": "bool",
          "name": "good",
          "type": "bool"
        },
        {
          "indexed": true,
          "internalType": "address",
          "name": "reporter",
          "type": "address"
        }
      ],
      "name": "ReportedDomain",
      "type": "event"
    },
    {
      "inputs": [
        {
          "internalType": "address",
          "name": "forwarder",
          "type": "address"
        }
      ],
      "name": "isTrustedForwarder",
      "outputs": [
        {
          "internalType": "bool",
          "name": "",
          "type": "bool"
        }
      ],
      "stateMutability": "view",
      "type": "function"
    },
    {
      "inputs": [
        {
          "internalType": "address",
          "name": "reported",
          "type": "address"
        }
      ],
      "name": "reportAddress",
      "outputs": [],
      "stateMutability": "nonpayable",
      "type": "function"
    },
    {
      "inputs": [
        {
          "internalType": "bytes32",
          "name": "domainHash",
          "type": "bytes32"
        },
        {
          "internalType": "bool",
          "name": "good",
          "type": "bool"
        }
      ],
      "name": "reportDomain",
      "outputs": [],
      "stateMutability": "nonpayable",
      "type": "function"
    }
  ],
  "bytecode": {
    "object": "0x60a060405234801561001057600080fd5b506040516102cf3803806102cf83398101604081905261002f91610040565b6001600160a01b0316608052610070565b60006020828403121561005257600080fd5b81516001600160a01b038116811461006957600080fd5b9392505050565b60805161023e6100916000396000818160560152610155015261023e6000f3fe608060405234801561001057600080fd5b50600436106100415760003560e01c8063572b6c0514610046578063e18f16e61461009a578063f2cb7083146100af575b600080fd5b6100866100543660046101a3565b7f00000000000000000000000000000000000000000000000000000000000000006001600160a01b0390811691161490565b604051901515815260200160405180910390f35b6100ad6100a83660046101d3565b6100c2565b005b6100ad6100bd3660046101a3565b610107565b6100ca610151565b6001600160a01b0316811515837fa723bdc2e90d5a799c028b7ee1841e84f7153469ca9b19a7719563a2023a109260405160405180910390a45050565b61010f610151565b6001600160a01b0316816001600160a01b03167f8b2d366ebc8da4bea31737af54c8577003759bfddede87fc646339052d4b403360405160405180910390a350565b60007f00000000000000000000000000000000000000000000000000000000000000006001600160a01b03163314801561018c575060143610155b1561019e575060131936013560601c90565b503390565b6000602082840312156101b557600080fd5b81356001600160a01b03811681146101cc57600080fd5b9392505050565b600080604083850312156101e657600080fd5b82359150602083013580151581146101fd57600080fd5b80915050925092905056fea2646970667358221220886134e2f6e37b91260630f46d3231f359df88bff26e65c3a24493c90d3f348664736f6c63430008150033",
    "linkReferences": {}
  },
  "methodIdentifiers": {
    "isTrustedForwarder(address)": "572b6c05",
    "reportAddress(address)": "f2cb7083",
    "reportDomain(bytes32,bool)": "e18f16e6"
  },
  "id": 22
}